{
  "contractName": "TimeCapsule",
  "abi": [
    {
      "constant": true,
      "inputs": [],
      "name": "counter",
      "outputs": [
        {
          "name": "",
          "type": "uint256"
        }
      ],
      "payable": false,
      "stateMutability": "view",
      "type": "function"
    },
    {
      "constant": true,
      "inputs": [],
      "name": "contractPaused",
      "outputs": [
        {
          "name": "",
          "type": "bool"
        }
      ],
      "payable": false,
      "stateMutability": "view",
      "type": "function"
    },
    {
      "constant": true,
      "inputs": [],
      "name": "contractOwner",
      "outputs": [
        {
          "name": "",
          "type": "address"
        }
      ],
      "payable": false,
      "stateMutability": "view",
      "type": "function"
    },
    {
      "inputs": [],
      "payable": false,
      "stateMutability": "nonpayable",
      "type": "constructor"
    },
    {
      "anonymous": false,
      "inputs": [
        {
          "indexed": false,
          "name": "id",
          "type": "uint256"
        },
        {
          "indexed": false,
          "name": "title",
          "type": "string"
        },
        {
          "indexed": false,
          "name": "ipfs",
          "type": "string"
        },
        {
          "indexed": false,
          "name": "isReleased",
          "type": "bool"
        },
        {
          "indexed": false,
          "name": "unlockTime",
          "type": "uint256"
        }
      ],
      "name": "EventEntry",
      "type": "event"
    },
    {
      "anonymous": false,
      "inputs": [
        {
          "indexed": false,
          "name": "id",
          "type": "uint256"
        },
        {
          "indexed": false,
          "name": "owner",
          "type": "address"
        },
        {
          "indexed": false,
          "name": "priv_key",
          "type": "string"
        },
        {
          "indexed": false,
          "name": "ec_aes_key",
          "type": "string"
        },
        {
          "indexed": false,
          "name": "ipfs",
          "type": "string"
        },
        {
          "indexed": false,
          "name": "isReleased",
          "type": "bool"
        }
      ],
      "name": "EventRelease",
      "type": "event"
    },
    {
      "constant": false,
      "inputs": [
        {
          "name": "_unlockTime",
          "type": "uint256"
        },
        {
          "name": "_ipfs",
          "type": "string"
        },
        {
          "name": "_title",
          "type": "string"
        },
        {
          "name": "_ecAesKey",
          "type": "string"
        },
        {
          "name": "_privKey",
          "type": "string"
        }
      ],
      "name": "appendEntry",
      "outputs": [],
      "payable": false,
      "stateMutability": "nonpayable",
      "type": "function"
    },
    {
      "constant": false,
      "inputs": [
        {
          "name": "_id",
          "type": "uint256"
        }
      ],
      "name": "release",
      "outputs": [],
      "payable": false,
      "stateMutability": "nonpayable",
      "type": "function"
    },
    {
      "constant": true,
      "inputs": [
        {
          "name": "_id",
          "type": "uint256"
        }
      ],
      "name": "getEntry",
      "outputs": [
        {
          "components": [
            {
              "name": "id",
              "type": "uint256"
            },
            {
              "name": "unlockTime",
              "type": "uint256"
            },
            {
              "name": "owner",
              "type": "address"
            },
            {
              "name": "ipfs",
              "type": "string"
            },
            {
              "name": "title",
              "type": "string"
            },
            {
              "name": "ec_aes_key",
              "type": "string"
            },
            {
              "name": "priv_key",
              "type": "string"
            },
            {
              "name": "isReleased",
              "type": "bool"
            }
          ],
          "name": "",
          "type": "tuple"
        }
      ],
      "payable": false,
      "stateMutability": "view",
      "type": "function"
    },
    {
      "constant": true,
      "inputs": [],
      "name": "getSenderEntries",
      "outputs": [
        {
          "components": [
            {
              "name": "id",
              "type": "uint256"
            },
            {
              "name": "unlockTime",
              "type": "uint256"
            },
            {
              "name": "owner",
              "type": "address"
            },
            {
              "name": "ipfs",
              "type": "string"
            },
            {
              "name": "title",
              "type": "string"
            },
            {
              "name": "ec_aes_key",
              "type": "string"
            },
            {
              "name": "priv_key",
              "type": "string"
            },
            {
              "name": "isReleased",
              "type": "bool"
            }
          ],
          "name": "",
          "type": "tuple[]"
        }
      ],
      "payable": false,
      "stateMutability": "view",
      "type": "function"
    },
    {
      "constant": true,
      "inputs": [],
      "name": "getTotalEntries",
      "outputs": [
        {
          "name": "x",
          "type": "uint256"
        }
      ],
      "payable": false,
      "stateMutability": "view",
      "type": "function"
    },
    {
      "constant": false,
      "inputs": [],
      "name": "circuitBreaker",
      "outputs": [],
      "payable": false,
      "stateMutability": "nonpayable",
      "type": "function"
    },
    {
      "constant": false,
      "inputs": [],
      "name": "close",
      "outputs": [],
      "payable": false,
      "stateMutability": "nonpayable",
      "type": "function"
    }
  ],
  "bytecode": "0x60806040526000600260006101000a81548160ff02191690831515021790555034801561002b57600080fd5b5033600260016101000a81548173ffffffffffffffffffffffffffffffffffffffff021916908373ffffffffffffffffffffffffffffffffffffffff1602179055506000600381905550611b05806100846000396000f3fe608060405234801561001057600080fd5b506004361061009e5760003560e01c806343d726d61161006657806343d726d61461012157806361bc221a1461012b5780638a67456a14610149578063bae78d7b14610167578063ce606ee0146101975761009e565b806312d491c9146100a357806316efd941146100c15780631c73620b146100cb5780632c89ffac146100e757806337bdc99b14610105575b600080fd5b6100ab6101b5565b6040516100b8919061183c565b60405180910390f35b6100c96101de565b005b6100e560048036036100e091908101906112ae565b610292565b005b6100ef6105db565b6040516100fc919061179d565b60405180910390f35b61011f600480360361011a9190810190611285565b6109a5565b005b610129610bd2565b005b610133610c67565b604051610140919061183c565b60405180910390f35b610151610c6d565b60405161015e91906117bf565b60405180910390f35b610181600480360361017c9190810190611285565b610c80565b60405161018e919061181a565b60405180910390f35b61019f611049565b6040516101ac9190611782565b60405180910390f35b6000801515600260009054906101000a900460ff161515146101d657600080fd5b600354905090565b600260019054906101000a900473ffffffffffffffffffffffffffffffffffffffff1673ffffffffffffffffffffffffffffffffffffffff163373ffffffffffffffffffffffffffffffffffffffff161461023857600080fd5b60001515600260009054906101000a900460ff1615151415610274576001600260006101000a81548160ff021916908315150217905550610290565b6000600260006101000a81548160ff0219169083151502179055505b565b60001515600260009054906101000a900460ff161515146102b257600080fd5b6102c8600160035461106f90919063ffffffff16565b6003819055506102d661111a565b60405180610100016040528060035481526020018781526020013373ffffffffffffffffffffffffffffffffffffffff168152602001868152602001858152602001848152602001838152602001600015158152509050806000806003548152602001908152602001600020600082015181600001556020820151816001015560408201518160020160006101000a81548173ffffffffffffffffffffffffffffffffffffffff021916908373ffffffffffffffffffffffffffffffffffffffff16021790555060608201518160030190805190602001906103b9929190611177565b5060808201518160040190805190602001906103d6929190611177565b5060a08201518160050190805190602001906103f3929190611177565b5060c0820151816006019080519060200190610410929190611177565b5060e08201518160070160006101000a81548160ff021916908315150217905550905050600160003373ffffffffffffffffffffffffffffffffffffffff1673ffffffffffffffffffffffffffffffffffffffff1681526020019081526020016000208190806001815401808255809150509060018203906000526020600020906008020160009091929091909150600082015181600001556020820151816001015560408201518160020160006101000a81548173ffffffffffffffffffffffffffffffffffffffff021916908373ffffffffffffffffffffffffffffffffffffffff1602179055506060820151816003019080519060200190610516929190611177565b506080820151816004019080519060200190610533929190611177565b5060a0820151816005019080519060200190610550929190611177565b5060c082015181600601908051906020019061056d929190611177565b5060e08201518160070160006101000a81548160ff0219169083151502179055505050507f0eeb72f1edca34548bd03195c64a0e18c69af82483ce94492f846b730b07cc8d600354858760008a6040516105cb9594939291906118cd565b60405180910390a1505050505050565b606060001515600260009054906101000a900460ff161515146105fd57600080fd5b600160003373ffffffffffffffffffffffffffffffffffffffff1673ffffffffffffffffffffffffffffffffffffffff168152602001908152602001600020805480602002602001604051908101604052809291908181526020016000905b8282101561099c57838290600052602060002090600802016040518061010001604052908160008201548152602001600182015481526020016002820160009054906101000a900473ffffffffffffffffffffffffffffffffffffffff1673ffffffffffffffffffffffffffffffffffffffff1673ffffffffffffffffffffffffffffffffffffffff168152602001600382018054600181600116156101000203166002900480601f0160208091040260200160405190810160405280929190818152602001828054600181600116156101000203166002900480156107835780601f1061075857610100808354040283529160200191610783565b820191906000526020600020905b81548152906001019060200180831161076657829003601f168201915b50505050508152602001600482018054600181600116156101000203166002900480601f0160208091040260200160405190810160405280929190818152602001828054600181600116156101000203166002900480156108255780601f106107fa57610100808354040283529160200191610825565b820191906000526020600020905b81548152906001019060200180831161080857829003601f168201915b50505050508152602001600582018054600181600116156101000203166002900480601f0160208091040260200160405190810160405280929190818152602001828054600181600116156101000203166002900480156108c75780601f1061089c576101008083540402835291602001916108c7565b820191906000526020600020905b8154815290600101906020018083116108aa57829003601f168201915b50505050508152602001600682018054600181600116156101000203166002900480601f0160208091040260200160405190810160405280929190818152602001828054600181600116156101000203166002900480156109695780601f1061093e57610100808354040283529160200191610969565b820191906000526020600020905b81548152906001019060200180831161094c57829003601f168201915b505050505081526020016007820160009054906101000a900460ff1615151515815250508152602001906001019061065c565b50505050905090565b806109d061012c600080848152602001908152602001600020600101546110c490919063ffffffff16565b4210156109dc57600080fd5b8160008082815260200190815260200160002060020160009054906101000a900473ffffffffffffffffffffffffffffffffffffffff1673ffffffffffffffffffffffffffffffffffffffff163373ffffffffffffffffffffffffffffffffffffffff1614610a4a57600080fd5b60001515600260009054906101000a900460ff16151514610a6a57600080fd5b6000806000858152602001908152602001600020905060018160070160006101000a81548160ff0219169083151502179055506000600160003373ffffffffffffffffffffffffffffffffffffffff1673ffffffffffffffffffffffffffffffffffffffff168152602001908152602001600020905060008090505b8180549050811015610b5b5785828281548110610aff57fe5b9060005260206000209060080201600001541415610b4e576001828281548110610b2557fe5b906000526020600020906008020160070160006101000a81548160ff0219169083151502179055505b8080600101915050610ae6565b507fddfb49795581b879d03fd12a509524a7e9031fe37c6dabab1cdfe3417e307296858360020160009054906101000a900473ffffffffffffffffffffffffffffffffffffffff168460060185600501866003016001604051610bc396959493929190611857565b60405180910390a15050505050565b600260019054906101000a900473ffffffffffffffffffffffffffffffffffffffff1673ffffffffffffffffffffffffffffffffffffffff163373ffffffffffffffffffffffffffffffffffffffff1614610c2c57600080fd5b600260019054906101000a900473ffffffffffffffffffffffffffffffffffffffff1673ffffffffffffffffffffffffffffffffffffffff16ff5b60035481565b600260009054906101000a900460ff1681565b610c8861111a565b8160008082815260200190815260200160002060020160009054906101000a900473ffffffffffffffffffffffffffffffffffffffff1673ffffffffffffffffffffffffffffffffffffffff163373ffffffffffffffffffffffffffffffffffffffff1614610cf657600080fd5b60001515600260009054906101000a900460ff16151514610d1657600080fd5b6000808481526020019081526020016000206040518061010001604052908160008201548152602001600182015481526020016002820160009054906101000a900473ffffffffffffffffffffffffffffffffffffffff1673ffffffffffffffffffffffffffffffffffffffff1673ffffffffffffffffffffffffffffffffffffffff168152602001600382018054600181600116156101000203166002900480601f016020809104026020016040519081016040528092919081815260200182805460018160011615610100020316600290048015610e375780601f10610e0c57610100808354040283529160200191610e37565b820191906000526020600020905b815481529060010190602001808311610e1a57829003601f168201915b50505050508152602001600482018054600181600116156101000203166002900480601f016020809104026020016040519081016040528092919081815260200182805460018160011615610100020316600290048015610ed95780601f10610eae57610100808354040283529160200191610ed9565b820191906000526020600020905b815481529060010190602001808311610ebc57829003601f168201915b50505050508152602001600582018054600181600116156101000203166002900480601f016020809104026020016040519081016040528092919081815260200182805460018160011615610100020316600290048015610f7b5780601f10610f5057610100808354040283529160200191610f7b565b820191906000526020600020905b815481529060010190602001808311610f5e57829003601f168201915b50505050508152602001600682018054600181600116156101000203166002900480601f01602080910402602001604051908101604052809291908181526020018280546001816001161561010002031660029004801561101d5780601f10610ff25761010080835404028352916020019161101d565b820191906000526020600020905b81548152906001019060200180831161100057829003601f168201915b505050505081526020016007820160009054906101000a900460ff161515151581525050915050919050565b600260019054906101000a900473ffffffffffffffffffffffffffffffffffffffff1681565b6000808284019050838110156110ba576040517f08c379a00000000000000000000000000000000000000000000000000000000081526004016110b1906117da565b60405180910390fd5b8091505092915050565b600082821115611109576040517f08c379a0000000000000000000000000000000000000000000000000000000008152600401611100906117fa565b60405180910390fd5b600082840390508091505092915050565b6040518061010001604052806000815260200160008152602001600073ffffffffffffffffffffffffffffffffffffffff168152602001606081526020016060815260200160608152602001606081526020016000151581525090565b828054600181600116156101000203166002900490600052602060002090601f016020900481019282601f106111b857805160ff19168380011785556111e6565b828001600101855582156111e6579182015b828111156111e55782518255916020019190600101906111ca565b5b5090506111f391906111f7565b5090565b61121991905b808211156112155760008160009055506001016111fd565b5090565b90565b600082601f83011261122d57600080fd5b813561124061123b8261195b565b61192e565b9150808252602083016020830185838301111561125c57600080fd5b611267838284611a61565b50505092915050565b60008135905061127f81611ab4565b92915050565b60006020828403121561129757600080fd5b60006112a584828501611270565b91505092915050565b600080600080600060a086880312156112c657600080fd5b60006112d488828901611270565b955050602086013567ffffffffffffffff8111156112f157600080fd5b6112fd8882890161121c565b945050604086013567ffffffffffffffff81111561131a57600080fd5b6113268882890161121c565b935050606086013567ffffffffffffffff81111561134357600080fd5b61134f8882890161121c565b925050608086013567ffffffffffffffff81111561136c57600080fd5b6113788882890161121c565b9150509295509295909350565b6000611391838361169f565b905092915050565b6113a281611a19565b82525050565b6113b181611a07565b82525050565b6113c081611a07565b82525050565b60006113d1826119a6565b6113db81856119d4565b9350836020820285016113ed85611987565b8060005b85811015611429578484038952815161140a8582611385565b9450611415836119c7565b925060208a019950506001810190506113f1565b50829750879550505050505092915050565b61144481611a2b565b82525050565b61145381611a2b565b82525050565b6000611464826119bc565b61146e81856119f6565b935061147e818560208601611a70565b61148781611aa3565b840191505092915050565b600061149d826119b1565b6114a781856119e5565b93506114b7818560208601611a70565b6114c081611aa3565b840191505092915050565b6000815460018116600081146114e8576001811461150e57611552565b607f60028304166114f981876119f6565b955060ff198316865260208601935050611552565b6002820461151c81876119f6565b955061152785611994565b60005b828110156115495781548189015260018201915060208101905061152a565b80880195505050505b505092915050565b6000611567601b836119f6565b91507f536166654d6174683a206164646974696f6e206f766572666c6f7700000000006000830152602082019050919050565b60006115a7601e836119f6565b91507f536166654d6174683a207375627472616374696f6e206f766572666c6f7700006000830152602082019050919050565b6000610100830160008301516115f36000860182611764565b5060208301516116066020860182611764565b50604083015161161960408601826113a8565b50606083015184820360608601526116318282611492565b9150506080830151848203608086015261164b8282611492565b91505060a083015184820360a08601526116658282611492565b91505060c083015184820360c086015261167f8282611492565b91505060e083015161169460e086018261143b565b508091505092915050565b6000610100830160008301516116b86000860182611764565b5060208301516116cb6020860182611764565b5060408301516116de60408601826113a8565b50606083015184820360608601526116f68282611492565b915050608083015184820360808601526117108282611492565b91505060a083015184820360a086015261172a8282611492565b91505060c083015184820360c08601526117448282611492565b91505060e083015161175960e086018261143b565b508091505092915050565b61176d81611a57565b82525050565b61177c81611a57565b82525050565b60006020820190506117976000830184611399565b92915050565b600060208201905081810360008301526117b781846113c6565b905092915050565b60006020820190506117d4600083018461144a565b92915050565b600060208201905081810360008301526117f38161155a565b9050919050565b600060208201905081810360008301526118138161159a565b9050919050565b6000602082019050818103600083015261183481846115da565b905092915050565b60006020820190506118516000830184611773565b92915050565b600060c08201905061186c6000830189611773565b61187960208301886113b7565b818103604083015261188b81876114cb565b9050818103606083015261189f81866114cb565b905081810360808301526118b381856114cb565b90506118c260a083018461144a565b979650505050505050565b600060a0820190506118e26000830188611773565b81810360208301526118f48187611459565b905081810360408301526119088186611459565b9050611917606083018561144a565b6119246080830184611773565b9695505050505050565b6000604051905081810181811067ffffffffffffffff8211171561195157600080fd5b8060405250919050565b600067ffffffffffffffff82111561197257600080fd5b601f19601f8301169050602081019050919050565b6000602082019050919050565b60008160005260206000209050919050565b600081519050919050565b600081519050919050565b600081519050919050565b6000602082019050919050565b600082825260208201905092915050565b600082825260208201905092915050565b600082825260208201905092915050565b6000611a1282611a37565b9050919050565b6000611a2482611a37565b9050919050565b60008115159050919050565b600073ffffffffffffffffffffffffffffffffffffffff82169050919050565b6000819050919050565b82818337600083830152505050565b60005b83811015611a8e578082015181840152602081019050611a73565b83811115611a9d576000848401525b50505050565b6000601f19601f8301169050919050565b611abd81611a57565b8114611ac857600080fd5b5056fea265627a7a723058205bac7e771bcbc1eb203fcaf7784cca26918e3da2a64d0ae05dbc29a5165db06f6c6578706572696d656e74616cf50037",
  "source": "pragma solidity ^0.5.0;\npragma experimental ABIEncoderV2;\n\nimport \"../client/node_modules/openzeppelin-solidity/contracts/math/SafeMath.sol\";\n\n/**\n* @title A digital time capsule for images\n* @author John Park\n* @notice This smart contract's main purpose is to store the state for an image time capsule application. Along with basic inifo like unlock time, title, etc, private key used to encrypt the AES key and the encrypted AES key is stored for each entry\n*/\ncontract TimeCapsule {\n  using SafeMath for uint256;\n\n  /// Custom type: Stores data about each encrypted image in IPFS\n  struct Entry {\n    uint256 id;\n    uint256 unlockTime;\n    address owner;\n    string ipfs;\n    string title;\n    string ec_aes_key;\n    string priv_key;\n    bool isReleased;\n  }\n\n  /// State variables: \n  mapping (uint256 => Entry) private entries; \n  mapping(address => Entry[]) private ownerToEntries;\n  \n  bool public contractPaused = false;\n  address payable public contractOwner;\n  uint256 public counter;\n\n  /// Events\n  event EventEntry(\n    uint256 id,\n    string title,\n    string ipfs,\n    bool isReleased,\n    uint256 unlockTime\n  );\n\n  event EventRelease(\n    uint256 id,\n    address owner,\n    string priv_key,\n    string ec_aes_key,\n    string ipfs,\n    bool isReleased\n  );\n\n  /// Modifiers\n  modifier onlyContractOwner() { /// only the contract creator can call\n    require(msg.sender == contractOwner);\n    _;\n  }\n\n  modifier onlyOwner(uint256 _id) { /// only the creator of the entry/entries can call\n    require(msg.sender == entries[_id].owner);\n    _;\n  }\n\n  modifier checkIfPaused() { /// If the contract is paused, stop the modified function. Attach this modifier to all public functions\n    require(contractPaused == false);\n    _;\n  }\n\n  /**\n   * @dev In order to avoid any complications that might arise from the fact that mining takes 10 to 20 seconds (such as frontrunning), the modifier has a wiggle room of 5 minutes. It's an extra precaution that might not be needed since you can only specify up to the day in the application UI\n   */\n  modifier checkRelease(uint256 _id) {\n    /// Note if the scale of your time-dependent event can vary by 15 seconds and maintain integrity, it is safe to use a block.timestamp / now\n    require(now >= (entries[_id].unlockTime.sub(300)));\n    _;\n  }\n\n  constructor() public {\n    contractOwner = msg.sender;\n    counter = 0;\n  }\n\n   /**\n   * @author John Park\n   * @notice Stores key pieces of information for an encrypted image\n   * @param _unlockTime The time when an encrypted image is able to be decrypted (Unix timestamp in seconds)\n   * @param _ipfs IPFS hash of the encrypted image\n   * @param _title Title of the encrypted image\n   * @param _ecAesKey Encrypted AES key -> AES key is used to encrypt the image. Public RSA key is used to encyrpt the AES key. Private RSA key is used to decrpt the encrypted AES key\n   * @param _privKey Private RSA key -> AES key is used to encrypt the image. Public RSA key is used to encyrpt the AES key. Private RSA key is used to decrpt the encrypted AES key\n   */\n  function appendEntry(uint256 _unlockTime, string memory _ipfs, string memory _title, string memory _ecAesKey, string memory _privKey) public checkIfPaused {\n    /// Increment id counter for new entry\n    counter = counter.add(1);\n\n    /// Defining Entry Struct instance\n    Entry memory entry = Entry(\n      counter,\n      _unlockTime,\n      msg.sender,\n      _ipfs,\n      _title,\n      _ecAesKey,\n      _privKey,\n      false\n    );\n\n    entries[counter] = entry;\n    ownerToEntries[msg.sender].push(entry);\n\n    /// Trigger an event to communicate with the client that the entry has successfully been added to the blockchain\n    emit EventEntry(counter, _title, _ipfs, false, _unlockTime);\n  }\n\n  /**\n   * @author John Park\n   * @notice Checks if it's time to decrypt an image by marking a boolean \n   * @param _id The Entry id. Used to identify which image is to be marked as ready to be decrypted\n   */\n  function release(uint256 _id) public checkRelease(_id) onlyOwner(_id) checkIfPaused {\n    Entry storage entry = entries[_id];\n    /// Change isReleased value\n    entry.isReleased = true;\n\n    Entry[] storage senderEntries = ownerToEntries[msg.sender];\n\n    for (uint i=0; i<senderEntries.length; i++) {\n      if (senderEntries[i].id == _id) {\n        senderEntries[i].isReleased = true;\n      }  \n    }\n\n    /// Trigger an event to communicate with the client that the entry has been successfully designated as released\n    emit EventRelease(_id, entry.owner, entry.priv_key, entry.ec_aes_key, entry.ipfs, true);\n  }\n\n  /**\n   * @author John Park\n   * @notice Fetches an Entry using _id as the unique identifier\n   * @param _id The Entry id\n   * @return An Entry struct\n   */\n  function getEntry(uint256 _id) public view onlyOwner(_id) checkIfPaused returns(Entry memory) {\n    return entries[_id];\n  }\n\n  /**\n   * @author John Park\n   * @notice Fetches an array of all of the message sender's Entries\n   * @return An array of Entries\n   */\n  function getSenderEntries() public view checkIfPaused returns(Entry[] memory) {\n    return ownerToEntries[msg.sender];\n  }\n\n  /**\n   * @author John Park\n   * @notice Fetches the total number of Entries stored in the contract\n   * @return Total number of Entries in the contract\n   */\n  function getTotalEntries() public view checkIfPaused returns(uint256 x) {\n    return counter;\n  }\n\n  /**\n   * @author John Park\n   * @notice Flips the value of contractPaused state variable so that the circuit breaker modifier kicks in\n   */\n  function circuitBreaker() public onlyContractOwner {\n      if (contractPaused == false) { contractPaused = true; }\n      else { contractPaused = false; }\n  }\n\n  /**\n   * @author John Park\n   * @notice Kill the contract so that it's no longer accessible \n   */\n  function close() public onlyContractOwner {\n    selfdestruct(contractOwner);\n  }\n}",
  "sourcePath": "/Users/johnpark/Developer/ConsenSysAcademy/time-capsule/contracts/TimeCapsule.sol",
  "compiler": {
    "name": "solc",
    "version": "0.5.8+commit.23d335f2.Emscripten.clang"
  },
  "schemaVersion": "3.0.11",
  "updatedAt": "2019-07-29T20:46:24.059Z",
  "devdoc": {
    "author": "John Park",
    "methods": {
      "appendEntry(uint256,string,string,string,string)": {
        "author": "John Park",
        "params": {
          "_ecAesKey": "Encrypted AES key -> AES key is used to encrypt the image. Public RSA key is used to encyrpt the AES key. Private RSA key is used to decrpt the encrypted AES key",
          "_ipfs": "IPFS hash of the encrypted image",
          "_privKey": "Private RSA key -> AES key is used to encrypt the image. Public RSA key is used to encyrpt the AES key. Private RSA key is used to decrpt the encrypted AES key",
          "_title": "Title of the encrypted image",
          "_unlockTime": "The time when an encrypted image is able to be decrypted (Unix timestamp in seconds)"
        }
      },
      "circuitBreaker()": {
        "author": "John Park"
      },
      "close()": {
        "author": "John Park"
      },
      "getEntry(uint256)": {
        "author": "John Park",
        "params": {
          "_id": "The Entry id"
        },
        "return": "An Entry struct"
      },
      "getSenderEntries()": {
        "author": "John Park",
        "return": "An array of Entries"
      },
      "getTotalEntries()": {
        "author": "John Park",
        "return": "Total number of Entries in the contract"
      },
      "release(uint256)": {
        "author": "John Park",
        "params": {
          "_id": "The Entry id. Used to identify which image is to be marked as ready to be decrypted"
        }
      }
    },
    "title": "A digital time capsule for images"
  },
  "userdoc": {
    "methods": {
      "appendEntry(uint256,string,string,string,string)": {
        "notice": "Stores key pieces of information for an encrypted image"
      },
      "circuitBreaker()": {
        "notice": "Flips the value of contractPaused state variable so that the circuit breaker modifier kicks in"
      },
      "close()": {
        "notice": "Kill the contract so that it's no longer accessible "
      },
      "getEntry(uint256)": {
        "notice": "Fetches an Entry using _id as the unique identifier"
      },
      "getSenderEntries()": {
        "notice": "Fetches an array of all of the message sender's Entries"
      },
      "getTotalEntries()": {
        "notice": "Fetches the total number of Entries stored in the contract"
      },
      "release(uint256)": {
        "notice": "Checks if it's time to decrypt an image by marking a boolean "
      }
    },
    "notice": "This smart contract's main purpose is to store the state for an image time capsule application. Along with basic inifo like unlock time, title, etc, private key used to encrypt the AES key and the encrypted AES key is stored for each entry"
  }
}